S00B00004156522E7372656330
S11300000C942A000C9447000C9447000C9447006D
S11300100C9447000C9447000C9447000C94470040
S11300200C9447000C9447000C941E030C94E102BA
S11300300C9447000C9447000C9447000C94470020
S11300400C9447000C9447000C9447000C94470010
S11300500C94470011241FBECFE5D8E0DEBFCDBF0E
S113006013E0A0E6B0E0E2EDF7E002C005900D92E7
S1130070AC3CB107D9F723E0ACECB3E001C01D926E
S1130080A23DB207E1F70E940C020C94E7030C9422
S11300900000009741F0E9EFF0E03197F1F700C07C
S11300A000000197C1F70895AF92BF92CF92DF92FB
S11300B0EF92FF920F931F93CF93DF9380EB93E024
S11300C00E94E70087EA91E60197F1F700C000007B
S11300D0C6EFD1E000E610E00F2EFCE8AF2EF3E00F
S11300E0BF2EF02D0F2EF8EECF2EF3E0DF2EF02DE5
S11300F07E0169917991072E000C880B990B0E945F
S1130100A101F701808191810E9488030E949603D6
S11301100E947403F801619171918F01C6010E94DC
S1130120B103CB010E9449000E940202CA15DB05FB
S1130130F9F686EB93E00E94E7000E947E03DF91CC
S1130140CF911F910F91FF90EF90DF90CF90BF90D0
S1130150AF900895CF93C82F61E082E00E94AD0272
S113016060E083E00E94AD028FE99FE00197F1F720
S113017000C0000061E083E00E94AD028BB39C2FBD
S1130180907F8F70892B8BBB60E083E00E94AD026F
S11301908FE99FE00197F1F700C0000061E083E080
S11301A00E94AD022BB330E1C39FC0011124922FF2
S11301B09F70892B8BBB60E083E00E94AD028FE9C6
S11301C09FE00197F1F700C00000CF910895CF930D
S11301D0DF93EC018881882331F021960E94AA00E4
S11301E089918111FBCFDF91CF910895CF93C82FCF
S11301F0682F617088E00E94AD02C1FB662760F938
S113020089E00E94AD02C2FB662760F98AE00E9481
S1130210AD02C3FB662760F98CE00E94AD02CF916A
S11302200895CF93C82F61E083E00E94AD028C2F24
S113023082958F700E94F60061E082E00E94AD0218
S113024081EE94E00197F1F700C0000060E082E0E5
S11302500E94AD0281EE94E00197F1F700C0000026
S11302608C2F0E94F60061E082E00E94AD0281EED4
S113027094E00197F1F700C0000060E082E00E9482
S1130280AD0281EE94E00197F1F700C00000CF9138
S11302900895CF93C82F60E083E00E94AD028C2FB5
S11302A082958F700E94F60061E082E00E94AD02A8
S11302B0000060E082E00E94AD028C2F0E94F600F4
S11302C061E082E00E94AD02000060E082E00E94F2
S11302D0AD02CF9108958BE49DE10197F1F700C041
S11302E0000082E00E94F60061E082E00E94AD021C
S11302F08BE49DE10197F1F700C0000060E082E02B
S11303000E94AD0288E20E9449019AE09A95F1F7B1
S11303108FE00E9449018AE08A95F1F781E00E940A
S113032049018BE49DE10197F1F700C0000086E0EC
S11303300E9449018BE49DE10197F1F700C00000A0
S113034008958F929F92AF92BF92FF920F931F9343
S1130350CF93DF93CDB7DEB72A970FB6F894DEBFFD
S11303600FBECDBF6115710581059105D9F1F12C41
S11303700F2EFAE08F2E912CA12CB12CF02D01C060
S1130380F02E01E010E00C0F1D1F0F0D111DA50133
S113039094010E94C503605DF8016083622F732F8E
S11303A0842F952F01E00F0D6115710581059105CD
S11303B039F70023B9F010E05801F1E0AF1AB108A1
S11303C081E090E08C0F9D1F080F191FAF18B10832
S11303D0A80EB91EF80182918F010E9411010A151D
S11303E01B05C1F72A960FB6F894DEBF0FBECDBF2A
S11303F0DF91CF911F910F91FF90BF90AF909F908D
S11304008F90089581E00E94490183EF91E0019764
S1130410F1F700C0000008950E949A020E945D0353
S11304200E946B010E945400FFCF282F2695269529
S113043026958770613039F138F0623009F443C091
S1130440633009F457C0089530E0220F331FF901D7
S1130450E454FC4F0190F081E02D41E050E0BA01FA
S113046002C0660F771F8A95E2F7CB019081982B23
S11304709083F901EC53FC4F0190F081E02D9081C1
S1130480892B8083089530E0220F331FF901E4544F
S1130490FC4F0190F081E02D41E050E0BA0102C030
S11304A0660F771F8A95E2F7CB019081982B908392
S11304B0F901EC53FC4F0190F081E02D809590817F
S11304C0892380830895E22FF0E0EE0FFF1FE454A8
S11304D0FC4F0190F081E02D21E030E0A90102C041
S11304E0440F551F8A95E2F7CA01809590818923AC
S11304F08083089530E0220F331FF901E454FC4F48
S11305000190F081E02D41E050E0BA0102C0660F95
S1130510771F8A95E2F7CB01809590819823908389
S1130520F901EC53FC4F0190F081E02D9081892377
S1130530808308950F931F93CF930CE813E0C0E0DA
S1130540F80161918F018C2F0E941502CF5FC03298
S1130550B9F7CF911F910F910895E82FE695E6958D
S1130560E69587706130A9F4F0E0EE0FFF1FEC53BD
S1130570FC4F0190F081E02D21E030E0A90102C0A0
S1130580440F551F8A95E2F7CA019081892B808315
S11305900895611115C0F0E0EE0FFF1FEC53FC4FFE
S11305A00190F081E02D21E030E0A90102C0440F68
S11305B0551F8A95E2F7CA0180959081892380832B
S11305C008951F920F920FB60F9211242F933F9309
S11305D04F935F936F937F938F939F93AF93BF9347
S11305E0EF93FF938091CE039091CF030196909364
S11305F0CF038093CE038331934179F481E382BFA7
S11306001092CF031092CE03E091AE03F091AF03AA
S1130610EC348CE4F80709F00995FF91EF91BF9150
S1130620AF919F918F917F916F915F914F913F9186
S11306302F910F900FBE0F901F9018951F920F923D
S11306400FB60F9211242F933F934F935F936F93A1
S11306507F938F939F93AF93BF93EF93FF93809177
S1130660CC039091CD0301969093CD038093CC035A
S11306702091D0033091D1038217930769F410922B
S1130680CD031092CC03E091AC03F091AD03EC34B4
S11306908CE4F80709F00995FF91EF91BF91AF91B0
S11306A09F918F917F916F915F914F913F912F9186
S11306B00F900FBE0F901F9018958FB58E7F8FBD32
S11306C08FB582608FBD8EB588608EBD8EB580611A
S11306D08EBD8FB58F7B8FBD8FB580688FBD80E059
S11306E094E097BD86BD08958EB581608EBD8EB5AC
S11306F082608EBD8EB58B7F8EBD08958EB58E7F44
S11307008EBD8EB58D7F8EBD8EB58B7F8EBD0895CB
S11307109C0140E050E060E970ED83E090E00E94CD
S1130720C5032150310937BD26BD089586B597B557
S1130730969587959BBD8ABD0895AA1BBB1B51E165
S113074007C0AA1FBB1FA617B70710F0A61BB70B3D
S1130750881F991F5A95A9F780959095BC01CD01E2
S1130760089597FB072E16F4009407D077FD09D05F
S11307700E949D0307FC05D03EF4909581959F4F00
S11307800895709561957F4F0895A1E21A2EAA1BD2
S1130790BB1BFD010DC0AA1FBB1FEE1FFF1FA2172D
S11307A0B307E407F50720F0A21BB30BE40BF50B2A
S11307B0661F771F881F991F1A9469F760957095B3
S11307C0809590959B01AC01BD01CF010895F894EB
S10507D0FFCF55
S11307D208000800040008000800080008000400DB
S11307E208000800080008000400080008000800C7
S11307F208000400080008000800040008000800BB
S113080208000800040008000800080008000400AA
S11308120800080008000800040008000800080096
S1130822040008000800080008000400080008008A
S11308320800080004000800080008000800080076
S1130842040008000800080004000800080004006E
S1130852080004000800080008000400080008005A
S1130862080008000400040004000800080008004E
S1130872040008000800080008000400080008003A
S1130882080008000400080008000800040008002A
S11308920800080008000400080008000800080016
S11308A2040008000800080008000400080008000A
S11308B208000400080008000800080004000800FA
S11308C208000800080004000800080008000800E6
S11308D208000400080008000800040008000800DA
S11308E204000800040008000800080004000800CE
S11308F208000800080004000400040008000400C2
S113090204000800040008000800080008000800A9
S113091208000800080004000400080004000400A1
S1130922080004000800080008000800080002008B
S11309320400080004000400080004000800080081
S11309420800080008000800080008000400040069
S1130952080004000400080004000800080008005D
S1130962080008000200E40C500F30113011A00FEF
S113097230114C136E146E14A00F6E14EE164C1339
S11309824C13A00F3011500F3011A00FE40C500F74
S113099230113011A00F30114C136E146E14A00FCD
S11309A26E14EE164C134C13A00F3011500F30116D
S11309B2A00FE40C500F30113011A00F30116E143F
S11309C2EE16EE16A00FEE16BE19441B441BA00F22
S11309D2BE19EE16BE193011A00F30114C136E144D
S11309E26E14A00FEE16BE193011A00F30116E1442
S11309F24C134C13A00F6E1430114C13A00F301172
S1130A02301130114C136E146E14A00F6E14EE16C6
S1130A124C134C13A00F3011500F3011A00FE40CE3
S1130A22500F30113011A00F30114C136E146E148C
S1130A32A00F6E14EE164C134C13A00F3011500F6E
S1130A423011A00FE40C500F30113011A00F3011EF
S1130A526E14EE16EE16A00FEE16BE19441B441BBE
S1130A62A00FBE19EE16BE193011A00F30114C138F
S1130A726E146E14A00FEE16BE193011A00F3011B1
S1130A826E144C134C13A00F6E1430114C13A00FA0
S1130A92BE19A00FA00F441BA00FA00FBE19BE19B0
S1130AA2A00FA01EA00FBE19EE16A00FA00FEE16E7
S1130AB2A00FA00F6E14A00FA00F4C136E14A00F62
S1130AC24C13A00F3011BE19A00FA00F441BA00F8E
S1130AD2A00FBE19BE19A00FA01EA00FBE19EE16BC
S1130AE2A00FA00FEE16A00FA00F6E14A00FA00F60
S1130AF24C136E14A00F4C13A00F30110303010109
S1130B0201010303010101020101000100000000CF
S1130B120000020003030303030000034C4C4C4C8B
S1130B22535441525400454E444544003A00370060
S10F0B32340031003B0038003500320074
S9030000FC
