S00B00004156522E7372656330
S11300000C942A000C9447000C9447000C9447006D
S11300100C9447000C9447000C9447000C94470040
S11300200C9447000C9447000C940C020C94CF01E0
S11300300C9447000C9447000C9447000C94470020
S11300400C9447000C9447000C9447000C94470010
S11300500C94470011241FBECFE5D8E0DEBFCDBF0E
S113006010E0A0E6B0E0EAE9F4E002C005900D92E9
S1130070A439B107D9F720E0A4E9B0E001C01D928A
S1130080AB39B207E1F70E94E3000C944B020C94E5
S11300900000CF93C82F61E083E00E9485016AE9E4
S11300A070E08C2F82958F700E94C20161E082E023
S11300B00E94850181EE94E00197F1F700C00000F1
S11300C060E082E00E94850181EE94E00197F1F7FF
S11300D000C000006AE970E08C2F0E94C20161E058
S11300E082E00E94850181EE94E00197F1F700C05F
S11300F0000060E082E00E94850181EE94E00197B7
S1130100F1F700C00000CF910895CF93C82F60E0AD
S113011083E00E9485016AE970E08C2F82958F70DC
S11301200E94C20161E082E00E948501000060E05B
S113013082E00E9485016AE970E08C2F0E94C2016E
S113014061E082E00E948501000060E082E00E949C
S11301508501CF9108958BE49DE10197F1F700C0EB
S113016000006AE970E082E00E94C20161E082E07E
S11301700E9485018BE49DE10197F1F700C0000026
S113018060E082E00E94850188E20E9485009AE096
S11301909A95F1F78FE00E9485008AE08A95F1F73D
S11301A081E00E9485008BE49DE10197F1F700C096
S11301B0000086E00E9485008BE49DE10197F1F741
S11301C000C0000008950E9472010E94AB000E94CA
S11301D0B90188E40E944900FFCF282F269526956F
S11301E026958770613039F138F0623009F443C0E4
S11301F0633009F457C0089530E0220F331FF9012A
S1130200EC57FF4F0190F081E02D41E050E0BA013E
S113021002C0660F771F8A95E2F7CB019081982B75
S11302209083F901E457FF4F0190F081E02D908114
S1130230892B8083089530E0220F331FF901EC5796
S1130240FF4F0190F081E02D41E050E0BA0102C07F
S1130250660F771F8A95E2F7CB019081982B9083E4
S1130260F901E457FF4F0190F081E02D80959081D2
S1130270892380830895E22FF0E0EE0FFF1FEC57EF
S1130280FF4F0190F081E02D21E030E0A90102C090
S1130290440F551F8A95E2F7CA01809590818923FE
S11302A08083089530E0220F331FF901EC57FF4F8C
S11302B00190F081E02D41E050E0BA0102C0660FE8
S11302C0771F8A95E2F7CB018095908198239083DC
S11302D0F901E457FF4F0190F081E02D90818923CB
S11302E0808308950F931F93CF9300E610E0C0E03E
S11302F0F80161918F018C2F0E94ED00CF5FC03215
S1130300B9F7CF911F910F910895E82FE695E695DF
S1130310E69587706130A9F4F0E0EE0FFF1FE45713
S1130320FF4F0190F081E02D21E030E0A90102C0EF
S1130330440F551F8A95E2F7CA019081892B808367
S11303400895611115C0F0E0EE0FFF1FE457FF4F51
S11303500190F081E02D21E030E0A90102C0440FBA
S1130360551F8A95E2F7CA0180959081892380837D
S113037008956F986C9A6898699A6D986B986A9AC0
S11303806E9A08956115710541F08FB9779BFECF80
S11303908FB1FB01808381E0089580E008951F926E
S11303A00F920FB60F9211242F933F934F935F93A5
S11303B06F937F938F939F93AF93BF93EF93FF9329
S11303C08091960090919700019690939700809366
S11303D096008331934179F481E382BF10929700B0
S11303E010929600E0918200F0918300EC348CE44A
S11303F0F80709F00995FF91EF91BF91AF919F9193
S11304008F917F916F915F914F913F912F910F90B9
S11304100FBE0F901F9018951F920F920FB60F9258
S113042011242F933F934F935F936F937F938F93F5
S11304309F93AF93BF93EF93FF9380919400909118
S113044095000196909395008093940020919800D4
S1130450309199008217930769F4109295001092D5
S11304609400E0918000F0918100EC348CE4F80772
S113047009F00995FF91EF91BF91AF919F918F91F1
S11304807F916F915F914F913F912F910F900FBE8C
S10D04900F901F901895F894FFCF09
S113049A0103010101010303010101010101020137
S11304AA000000000000020002010303030000032D
S11304BA4C4C4C4C3A003700340031003B003800B5
S10704CA35003200C3
S9030000FC
